{
  "contractName": "Loteria",
  "abi": [
    {
      "inputs": [],
      "stateMutability": "nonpayable",
      "type": "constructor"
    },
    {
      "anonymous": false,
      "inputs": [
        {
          "indexed": false,
          "internalType": "uint256",
          "name": "",
          "type": "uint256"
        },
        {
          "indexed": false,
          "internalType": "address",
          "name": "",
          "type": "address"
        }
      ],
      "name": "ComprandoTokens",
      "type": "event"
    },
    {
      "anonymous": false,
      "inputs": [
        {
          "indexed": false,
          "internalType": "uint256",
          "name": "",
          "type": "uint256"
        },
        {
          "indexed": false,
          "internalType": "address",
          "name": "",
          "type": "address"
        }
      ],
      "name": "boleto_comprado",
      "type": "event"
    },
    {
      "anonymous": false,
      "inputs": [
        {
          "indexed": false,
          "internalType": "uint256",
          "name": "",
          "type": "uint256"
        }
      ],
      "name": "boleto_ganador",
      "type": "event"
    },
    {
      "anonymous": false,
      "inputs": [
        {
          "indexed": false,
          "internalType": "uint256",
          "name": "",
          "type": "uint256"
        },
        {
          "indexed": false,
          "internalType": "address",
          "name": "",
          "type": "address"
        }
      ],
      "name": "tokens_devueltos",
      "type": "event"
    },
    {
      "inputs": [],
      "name": "PrecioBoleto",
      "outputs": [
        {
          "internalType": "uint256",
          "name": "",
          "type": "uint256"
        }
      ],
      "stateMutability": "view",
      "type": "function",
      "constant": true
    },
    {
      "inputs": [],
      "name": "contrato",
      "outputs": [
        {
          "internalType": "address",
          "name": "",
          "type": "address"
        }
      ],
      "stateMutability": "view",
      "type": "function",
      "constant": true
    },
    {
      "inputs": [],
      "name": "direccion_ganador",
      "outputs": [
        {
          "internalType": "address",
          "name": "",
          "type": "address"
        }
      ],
      "stateMutability": "view",
      "type": "function",
      "constant": true
    },
    {
      "inputs": [],
      "name": "owner",
      "outputs": [
        {
          "internalType": "address",
          "name": "",
          "type": "address"
        }
      ],
      "stateMutability": "view",
      "type": "function",
      "constant": true
    },
    {
      "inputs": [],
      "name": "tokens_creados",
      "outputs": [
        {
          "internalType": "uint256",
          "name": "",
          "type": "uint256"
        }
      ],
      "stateMutability": "view",
      "type": "function",
      "constant": true
    },
    {
      "inputs": [
        {
          "internalType": "uint256",
          "name": "_numTokens",
          "type": "uint256"
        }
      ],
      "name": "GeneraTokens",
      "outputs": [],
      "stateMutability": "nonpayable",
      "type": "function"
    },
    {
      "inputs": [
        {
          "internalType": "address",
          "name": "_propietario",
          "type": "address"
        },
        {
          "internalType": "uint256",
          "name": "_numTokens",
          "type": "uint256"
        }
      ],
      "name": "CompraTokens",
      "outputs": [],
      "stateMutability": "payable",
      "type": "function",
      "payable": true
    },
    {
      "inputs": [],
      "name": "TokensDisponibles",
      "outputs": [
        {
          "internalType": "uint256",
          "name": "",
          "type": "uint256"
        }
      ],
      "stateMutability": "view",
      "type": "function",
      "constant": true
    },
    {
      "inputs": [],
      "name": "Bote",
      "outputs": [
        {
          "internalType": "uint256",
          "name": "",
          "type": "uint256"
        }
      ],
      "stateMutability": "view",
      "type": "function",
      "constant": true
    },
    {
      "inputs": [
        {
          "internalType": "address",
          "name": "_propietario",
          "type": "address"
        }
      ],
      "name": "MisTokens",
      "outputs": [
        {
          "internalType": "uint256",
          "name": "",
          "type": "uint256"
        }
      ],
      "stateMutability": "view",
      "type": "function",
      "constant": true
    },
    {
      "inputs": [
        {
          "internalType": "uint256",
          "name": "_boletos",
          "type": "uint256"
        }
      ],
      "name": "CompraBoleto",
      "outputs": [],
      "stateMutability": "nonpayable",
      "type": "function"
    },
    {
      "inputs": [],
      "name": "TusBoletos",
      "outputs": [
        {
          "internalType": "uint256[]",
          "name": "",
          "type": "uint256[]"
        }
      ],
      "stateMutability": "view",
      "type": "function",
      "constant": true
    },
    {
      "inputs": [],
      "name": "GenerarGanador",
      "outputs": [],
      "stateMutability": "nonpayable",
      "type": "function"
    },
    {
      "inputs": [
        {
          "internalType": "uint256",
          "name": "_numTokens",
          "type": "uint256"
        }
      ],
      "name": "DevolverTokens",
      "outputs": [],
      "stateMutability": "payable",
      "type": "function",
      "payable": true
    }
  ],
  "bytecode": "0x60806040526127106004556005805560006008553480156200002057600080fd5b50600454604051620000329062000123565b6200003e919062000142565b604051809103906000f0801580156200005b573d6000803e3d6000fd5b506000806101000a81548173ffffffffffffffffffffffffffffffffffffffff021916908373ffffffffffffffffffffffffffffffffffffffff16021790555033600160006101000a81548173ffffffffffffffffffffffffffffffffffffffff021916908373ffffffffffffffffffffffffffffffffffffffff16021790555030600260006101000a81548173ffffffffffffffffffffffffffffffffffffffff021916908373ffffffffffffffffffffffffffffffffffffffff16021790555062000169565b61109d8062001ab083390190565b6200013c816200015f565b82525050565b600060208201905062000159600083018462000131565b92915050565b6000819050919050565b61193780620001796000396000f3fe6080604052600436106100dd5760003560e01c80638acb3a211161007f578063dd8e728d11610059578063dd8e728d1461026c578063e1a01e6714610297578063fd62ed8c146102c2578063fd889ff5146102ed576100dd565b80638acb3a21146101ed5780638c11ff4c146102165780638da5cb5b14610241576100dd565b80631890154c116100bb5780631890154c1461016457806327909f27146101805780635332eee5146101ab57806374189861146101c2576100dd565b80630e03c03b146100e25780631246f6e21461011f5780631670436c14610148575b600080fd5b3480156100ee57600080fd5b5061010960048036038101906101049190611127565b610318565b604051610116919061173a565b60405180910390f35b34801561012b57600080fd5b50610146600480360381019061014191906111b5565b6103cb565b005b610162600480360381019061015d9190611150565b6104ec565b005b61017e600480360381019061017991906111b5565b6106c8565b005b34801561018c57600080fd5b50610195610892565b6040516101a2919061173a565b60405180910390f35b3480156101b757600080fd5b506101c0610898565b005b3480156101ce57600080fd5b506101d7610b59565b6040516101e4919061173a565b60405180910390f35b3480156101f957600080fd5b50610214600480360381019061020f91906111b5565b610c2c565b005b34801561022257600080fd5b5061022b610edf565b6040516102389190611638565b60405180910390f35b34801561024d57600080fd5b50610256610f74565b60405161026391906115bd565b60405180910390f35b34801561027857600080fd5b50610281610f9a565b60405161028e91906115bd565b60405180910390f35b3480156102a357600080fd5b506102ac610fc0565b6040516102b991906115bd565b60405180910390f35b3480156102ce57600080fd5b506102d7610fe6565b6040516102e4919061173a565b60405180910390f35b3480156102f957600080fd5b50610302610fec565b60405161030f919061173a565b60405180910390f35b60008060009054906101000a900473ffffffffffffffffffffffffffffffffffffffff1673ffffffffffffffffffffffffffffffffffffffff166370a08231836040518263ffffffff1660e01b815260040161037491906115bd565b60206040518083038186803b15801561038c57600080fd5b505afa1580156103a0573d6000803e3d6000fd5b505050506040513d601f19601f820116820180604052508101906103c491906111de565b9050919050565b33600160009054906101000a900473ffffffffffffffffffffffffffffffffffffffff1673ffffffffffffffffffffffffffffffffffffffff168173ffffffffffffffffffffffffffffffffffffffff161461045c576040517f08c379a0000000000000000000000000000000000000000000000000000000008152600401610453906116fa565b60405180910390fd5b6000809054906101000a900473ffffffffffffffffffffffffffffffffffffffff1673ffffffffffffffffffffffffffffffffffffffff16631d43cc98836040518263ffffffff1660e01b81526004016104b6919061173a565b600060405180830381600087803b1580156104d057600080fd5b505af11580156104e4573d6000803e3d6000fd5b505050505050565b60006104f7826110bf565b90508034101561053c576040517f08c379a00000000000000000000000000000000000000000000000000000000081526004016105339061171a565b60405180910390fd5b6000610546610fec565b90508083111561058b576040517f08c379a0000000000000000000000000000000000000000000000000000000008152600401610582906116da565b60405180910390fd5b600082340390503373ffffffffffffffffffffffffffffffffffffffff166108fc829081150290604051600060405180830381858888f193505050501580156105d8573d6000803e3d6000fd5b506000809054906101000a900473ffffffffffffffffffffffffffffffffffffffff1673ffffffffffffffffffffffffffffffffffffffff1663a9059cbb86866040518363ffffffff1660e01b815260040161063592919061160f565b602060405180830381600087803b15801561064f57600080fd5b505af1158015610663573d6000803e3d6000fd5b505050506040513d601f19601f82011682018060405250810190610687919061118c565b507fc5d46be962adb867acf29dce93ab611e9064bffee951e4db9e52c693f73f4c3884866040516106b9929190611755565b60405180910390a15050505050565b6000811161070b576040517f08c379a00000000000000000000000000000000000000000000000000000000081526004016107029061167a565b60405180910390fd5b61071433610318565b811115610756576040517f08c379a000000000000000000000000000000000000000000000000000000000815260040161074d906116ba565b60405180910390fd5b6000809054906101000a900473ffffffffffffffffffffffffffffffffffffffff1673ffffffffffffffffffffffffffffffffffffffff1663f7a1d1943330846040518463ffffffff1660e01b81526004016107b4939291906115d8565b602060405180830381600087803b1580156107ce57600080fd5b505af11580156107e2573d6000803e3d6000fd5b505050506040513d601f19601f82011682018060405250810190610806919061118c565b503373ffffffffffffffffffffffffffffffffffffffff166108fc61082a836110bf565b9081150290604051600060405180830381858888f19350505050158015610855573d6000803e3d6000fd5b507fedb4e62d28b4facd6d91f70625ac1ea2c1a9cac0ecc3e638b50633575d818a4e813360405161088792919061177e565b60405180910390a150565b60055481565b33600160009054906101000a900473ffffffffffffffffffffffffffffffffffffffff1673ffffffffffffffffffffffffffffffffffffffff168173ffffffffffffffffffffffffffffffffffffffff1614610929576040517f08c379a0000000000000000000000000000000000000000000000000000000008152600401610920906116fa565b60405180910390fd5b600060098054905011610971576040517f08c379a00000000000000000000000000000000000000000000000000000000081526004016109689061165a565b60405180910390fd5b600060098054905090506000814260405160200161098f9190611565565b6040516020818303038152906040528051906020012060001c816109af57fe5b0690506000600982815481106109c157fe5b906000526020600020015490507f7ae8aa8a76009e9379a432b67d892b6006479447de6892c862ce780785a2387d816040516109fd919061173a565b60405180910390a16007600082815260200190815260200160002060009054906101000a900473ffffffffffffffffffffffffffffffffffffffff16600360006101000a81548173ffffffffffffffffffffffffffffffffffffffff021916908373ffffffffffffffffffffffffffffffffffffffff1602179055506000809054906101000a900473ffffffffffffffffffffffffffffffffffffffff1673ffffffffffffffffffffffffffffffffffffffff1663f7a1d19433600360009054906101000a900473ffffffffffffffffffffffffffffffffffffffff16610ae2610b59565b6040518463ffffffff1660e01b8152600401610b00939291906115d8565b602060405180830381600087803b158015610b1a57600080fd5b505af1158015610b2e573d6000803e3d6000fd5b505050506040513d601f19601f82011682018060405250810190610b52919061118c565b5050505050565b60008060009054906101000a900473ffffffffffffffffffffffffffffffffffffffff1673ffffffffffffffffffffffffffffffffffffffff166370a08231600160009054906101000a900473ffffffffffffffffffffffffffffffffffffffff166040518263ffffffff1660e01b8152600401610bd791906115bd565b60206040518083038186803b158015610bef57600080fd5b505afa158015610c03573d6000803e3d6000fd5b505050506040513d601f19601f82011682018060405250810190610c2791906111de565b905090565b600060055482029050610c3e33610318565b811015610c80576040517f08c379a0000000000000000000000000000000000000000000000000000000008152600401610c779061169a565b60405180910390fd5b6000809054906101000a900473ffffffffffffffffffffffffffffffffffffffff1673ffffffffffffffffffffffffffffffffffffffff1663f7a1d19433600160009054906101000a900473ffffffffffffffffffffffffffffffffffffffff16846040518463ffffffff1660e01b8152600401610d00939291906115d8565b602060405180830381600087803b158015610d1a57600080fd5b505af1158015610d2e573d6000803e3d6000fd5b505050506040513d601f19601f82011682018060405250810190610d52919061118c565b5060008090505b82811015610eda5760006127104233600854604051602001610d7d93929190611580565b6040516020818303038152906040528051906020012060001c81610d9d57fe5b069050600860008154809291906001019190505550600660003373ffffffffffffffffffffffffffffffffffffffff1673ffffffffffffffffffffffffffffffffffffffff1681526020019081526020016000208190806001815401808255809150506001900390600052602060002001600090919091909150556009819080600181540180825580915050600190039060005260206000200160009091909190915055336007600083815260200190815260200160002060006101000a81548173ffffffffffffffffffffffffffffffffffffffff021916908373ffffffffffffffffffffffffffffffffffffffff1602179055507f3dc84428040dff15296d25a054aea6c52a38e013683cf8175ec47e9849d101fe8133604051610ec492919061177e565b60405180910390a1508080600101915050610d59565b505050565b6060600660003373ffffffffffffffffffffffffffffffffffffffff1673ffffffffffffffffffffffffffffffffffffffff168152602001908152602001600020805480602002602001604051908101604052809291908181526020018280548015610f6a57602002820191906000526020600020905b815481526020019060010190808311610f56575b5050505050905090565b600160009054906101000a900473ffffffffffffffffffffffffffffffffffffffff1681565b600360009054906101000a900473ffffffffffffffffffffffffffffffffffffffff1681565b600260009054906101000a900473ffffffffffffffffffffffffffffffffffffffff1681565b60045481565b60008060009054906101000a900473ffffffffffffffffffffffffffffffffffffffff1673ffffffffffffffffffffffffffffffffffffffff166370a08231600260009054906101000a900473ffffffffffffffffffffffffffffffffffffffff166040518263ffffffff1660e01b815260040161106a91906115bd565b60206040518083038186803b15801561108257600080fd5b505afa158015611096573d6000803e3d6000fd5b505050506040513d601f19601f820116820180604052508101906110ba91906111de565b905090565b6000670de0b6b3a764000082029050919050565b6000813590506110e2816118bc565b92915050565b6000815190506110f7816118d3565b92915050565b60008135905061110c816118ea565b92915050565b600081519050611121816118ea565b92915050565b60006020828403121561113957600080fd5b6000611147848285016110d3565b91505092915050565b6000806040838503121561116357600080fd5b6000611171858286016110d3565b9250506020611182858286016110fd565b9150509250929050565b60006020828403121561119e57600080fd5b60006111ac848285016110e8565b91505092915050565b6000602082840312156111c757600080fd5b60006111d5848285016110fd565b91505092915050565b6000602082840312156111f057600080fd5b60006111fe84828501611112565b91505092915050565b60006112138383611530565b60208301905092915050565b6112288161184b565b82525050565b61123f61123a82611803565b611881565b82525050565b61124e816117f1565b82525050565b600061125f826117b7565b61126981856117cf565b9350611274836117a7565b8060005b838110156112a557815161128c8882611207565b9750611297836117c2565b925050600181019050611278565b5085935050505092915050565b60006112bf6018836117e0565b91507f4e6f2068617920626f6c65746f7320636f6d707261646f7300000000000000006000830152602082019050919050565b60006112ff6030836117e0565b91507f4e6563657369746173206465766f6c76657220756e206e756d65726f20706f7360008301527f697469766f20646520546f6b656e732e000000000000000000000000000000006020830152604082019050919050565b6000611365601d836117e0565b91507f4e656365736974617320636f6d70726172206d617320546f6b656e732e0000006000830152602082019050919050565b60006113a56029836117e0565b91507f4e6f207469656e6573206c6f7320546f6b656e7320717565206465736561732060008301527f6465766f6c7665722e00000000000000000000000000000000000000000000006020830152604082019050919050565b600061140b6024836117e0565b91507f436f6d70726120756e206e756d65726f20646520546f6b656e7320616465637560008301527f61646f2e000000000000000000000000000000000000000000000000000000006020830152604082019050919050565b6000611471602e836117e0565b91507f4e6f207469656e6573207065726d69736f73207061726120656a65637574617260008301527f20657374612066756e63696f6e2e0000000000000000000000000000000000006020830152604082019050919050565b60006114d7602a836117e0565b91507f436f6d707261206d656e6f7320546f6b656e73206f207061676120636f6e206d60008301527f6173206574686572732e000000000000000000000000000000000000000000006020830152604082019050919050565b61153981611841565b82525050565b61154881611841565b82525050565b61155f61155a82611841565b6118a5565b82525050565b6000611571828461154e565b60208201915081905092915050565b600061158c828661154e565b60208201915061159c828561122e565b6014820191506115ac828461154e565b602082019150819050949350505050565b60006020820190506115d26000830184611245565b92915050565b60006060820190506115ed600083018661121f565b6115fa6020830185611245565b611607604083018461153f565b949350505050565b60006040820190506116246000830185611245565b611631602083018461153f565b9392505050565b600060208201905081810360008301526116528184611254565b905092915050565b60006020820190508181036000830152611673816112b2565b9050919050565b60006020820190508181036000830152611693816112f2565b9050919050565b600060208201905081810360008301526116b381611358565b9050919050565b600060208201905081810360008301526116d381611398565b9050919050565b600060208201905081810360008301526116f3816113fe565b9050919050565b6000602082019050818103600083015261171381611464565b9050919050565b60006020820190508181036000830152611733816114ca565b9050919050565b600060208201905061174f600083018461153f565b92915050565b600060408201905061176a600083018561153f565b6117776020830184611245565b9392505050565b6000604082019050611793600083018561153f565b6117a0602083018461121f565b9392505050565b6000819050602082019050919050565b600081519050919050565b6000602082019050919050565b600082825260208201905092915050565b600082825260208201905092915050565b60006117fc82611821565b9050919050565b600061180e82611821565b9050919050565b60008115159050919050565b600073ffffffffffffffffffffffffffffffffffffffff82169050919050565b6000819050919050565b60006118568261185d565b9050919050565b60006118688261186f565b9050919050565b600061187a82611821565b9050919050565b600061188c82611893565b9050919050565b600061189e826118af565b9050919050565b6000819050919050565b60008160601b9050919050565b6118c5816117f1565b81146118d057600080fd5b50565b6118dc81611815565b81146118e757600080fd5b50565b6118f381611841565b81146118fe57600080fd5b5056fea264697066735822122000a0afc0a14ee91a1487e1c5ac6993906e10b679cea498cfd7a7059d6b89f0d564736f6c63430006080033608060405234801561001057600080fd5b5060405161109d38038061109d83398181016040528101906100329190610099565b806002819055506002546000803373ffffffffffffffffffffffffffffffffffffffff1673ffffffffffffffffffffffffffffffffffffffff16815260200190815260200160002081905550506100e3565b600081519050610093816100cc565b92915050565b6000602082840312156100ab57600080fd5b60006100b984828501610084565b91505092915050565b6000819050919050565b6100d5816100c2565b81146100e057600080fd5b50565b610fab806100f26000396000f3fe608060405234801561001057600080fd5b50600436106100a95760003560e01c8063313ce56711610071578063313ce5671461016657806370a082311461018457806395d89b41146101b4578063a9059cbb146101d2578063dd62ed3e14610202578063f7a1d19414610232576100a9565b806306fdde03146100ae578063095ea7b3146100cc57806318160ddd146100fc5780631d43cc981461011a57806323b872dd14610136575b600080fd5b6100b6610262565b6040516100c39190610e3a565b60405180910390f35b6100e660048036038101906100e19190610d54565b61029b565b6040516100f39190610e1f565b60405180910390f35b61010461038d565b6040516101119190610e5c565b60405180910390f35b610134600480360381019061012f9190610d90565b610397565b005b610150600480360381019061014b9190610d05565b6103f6565b60405161015d9190610e1f565b60405180910390f35b61016e610771565b60405161017b9190610e77565b60405180910390f35b61019e60048036038101906101999190610ca0565b610776565b6040516101ab9190610e5c565b60405180910390f35b6101bc6107be565b6040516101c99190610e3a565b60405180910390f35b6101ec60048036038101906101e79190610d54565b6107f7565b6040516101f99190610e1f565b60405180910390f35b61021c60048036038101906102179190610cc9565b6109d9565b6040516102299190610e5c565b60405180910390f35b61024c60048036038101906102479190610d05565b610a60565b6040516102599190610e1f565b60405180910390f35b6040518060400160405280601181526020017f4552433230426c6f636b636861696e415a00000000000000000000000000000081525081565b600081600160003373ffffffffffffffffffffffffffffffffffffffff1673ffffffffffffffffffffffffffffffffffffffff16815260200190815260200160002060008573ffffffffffffffffffffffffffffffffffffffff1673ffffffffffffffffffffffffffffffffffffffff168152602001908152602001600020819055508273ffffffffffffffffffffffffffffffffffffffff163373ffffffffffffffffffffffffffffffffffffffff167f8c5be1e5ebec7d5bd14f71427d1e84f3dd0314c0f7b2291e5b200ac8c7c3b9258460405161037b9190610e5c565b60405180910390a36001905092915050565b6000600254905090565b80600260008282540192505081905550806000803373ffffffffffffffffffffffffffffffffffffffff1673ffffffffffffffffffffffffffffffffffffffff1681526020019081526020016000206000828254019250508190555050565b60008060008573ffffffffffffffffffffffffffffffffffffffff1673ffffffffffffffffffffffffffffffffffffffff1681526020019081526020016000205482111561044357600080fd5b600160008573ffffffffffffffffffffffffffffffffffffffff1673ffffffffffffffffffffffffffffffffffffffff16815260200190815260200160002060003373ffffffffffffffffffffffffffffffffffffffff1673ffffffffffffffffffffffffffffffffffffffff168152602001908152602001600020548211156104cc57600080fd5b61051d826000808773ffffffffffffffffffffffffffffffffffffffff1673ffffffffffffffffffffffffffffffffffffffff16815260200190815260200160002054610c4390919063ffffffff16565b6000808673ffffffffffffffffffffffffffffffffffffffff1673ffffffffffffffffffffffffffffffffffffffff168152602001908152602001600020819055506105ee82600160008773ffffffffffffffffffffffffffffffffffffffff1673ffffffffffffffffffffffffffffffffffffffff16815260200190815260200160002060003373ffffffffffffffffffffffffffffffffffffffff1673ffffffffffffffffffffffffffffffffffffffff16815260200190815260200160002054610c4390919063ffffffff16565b600160008673ffffffffffffffffffffffffffffffffffffffff1673ffffffffffffffffffffffffffffffffffffffff16815260200190815260200160002060003373ffffffffffffffffffffffffffffffffffffffff1673ffffffffffffffffffffffffffffffffffffffff168152602001908152602001600020819055506106bf826000808673ffffffffffffffffffffffffffffffffffffffff1673ffffffffffffffffffffffffffffffffffffffff16815260200190815260200160002054610c5a90919063ffffffff16565b6000808573ffffffffffffffffffffffffffffffffffffffff1673ffffffffffffffffffffffffffffffffffffffff168152602001908152602001600020819055508273ffffffffffffffffffffffffffffffffffffffff168473ffffffffffffffffffffffffffffffffffffffff167fddf252ad1be2c89b69c2b068fc378daa952ba7f163c4a11628f55a4df523b3ef8460405161075e9190610e5c565b60405180910390a3600190509392505050565b601281565b60008060008373ffffffffffffffffffffffffffffffffffffffff1673ffffffffffffffffffffffffffffffffffffffff168152602001908152602001600020549050919050565b6040518060400160405280600381526020017f455243000000000000000000000000000000000000000000000000000000000081525081565b60008060003373ffffffffffffffffffffffffffffffffffffffff1673ffffffffffffffffffffffffffffffffffffffff1681526020019081526020016000205482111561084457600080fd5b610895826000803373ffffffffffffffffffffffffffffffffffffffff1673ffffffffffffffffffffffffffffffffffffffff16815260200190815260200160002054610c4390919063ffffffff16565b6000803373ffffffffffffffffffffffffffffffffffffffff1673ffffffffffffffffffffffffffffffffffffffff16815260200190815260200160002081905550610928826000808673ffffffffffffffffffffffffffffffffffffffff1673ffffffffffffffffffffffffffffffffffffffff16815260200190815260200160002054610c5a90919063ffffffff16565b6000808573ffffffffffffffffffffffffffffffffffffffff1673ffffffffffffffffffffffffffffffffffffffff168152602001908152602001600020819055508273ffffffffffffffffffffffffffffffffffffffff163373ffffffffffffffffffffffffffffffffffffffff167fddf252ad1be2c89b69c2b068fc378daa952ba7f163c4a11628f55a4df523b3ef846040516109c79190610e5c565b60405180910390a36001905092915050565b6000600160008473ffffffffffffffffffffffffffffffffffffffff1673ffffffffffffffffffffffffffffffffffffffff16815260200190815260200160002060008373ffffffffffffffffffffffffffffffffffffffff1673ffffffffffffffffffffffffffffffffffffffff16815260200190815260200160002054905092915050565b60008060008573ffffffffffffffffffffffffffffffffffffffff1673ffffffffffffffffffffffffffffffffffffffff16815260200190815260200160002054821115610aad57600080fd5b610afe826000808773ffffffffffffffffffffffffffffffffffffffff1673ffffffffffffffffffffffffffffffffffffffff16815260200190815260200160002054610c4390919063ffffffff16565b6000808673ffffffffffffffffffffffffffffffffffffffff1673ffffffffffffffffffffffffffffffffffffffff16815260200190815260200160002081905550610b91826000808673ffffffffffffffffffffffffffffffffffffffff1673ffffffffffffffffffffffffffffffffffffffff16815260200190815260200160002054610c5a90919063ffffffff16565b6000808573ffffffffffffffffffffffffffffffffffffffff1673ffffffffffffffffffffffffffffffffffffffff168152602001908152602001600020819055508273ffffffffffffffffffffffffffffffffffffffff163373ffffffffffffffffffffffffffffffffffffffff167fddf252ad1be2c89b69c2b068fc378daa952ba7f163c4a11628f55a4df523b3ef84604051610c309190610e5c565b60405180910390a3600190509392505050565b600082821115610c4f57fe5b818303905092915050565b600080828401905083811015610c6c57fe5b8091505092915050565b600081359050610c8581610f47565b92915050565b600081359050610c9a81610f5e565b92915050565b600060208284031215610cb257600080fd5b6000610cc084828501610c76565b91505092915050565b60008060408385031215610cdc57600080fd5b6000610cea85828601610c76565b9250506020610cfb85828601610c76565b9150509250929050565b600080600060608486031215610d1a57600080fd5b6000610d2886828701610c76565b9350506020610d3986828701610c76565b9250506040610d4a86828701610c8b565b9150509250925092565b60008060408385031215610d6757600080fd5b6000610d7585828601610c76565b9250506020610d8685828601610c8b565b9150509250929050565b600060208284031215610da257600080fd5b6000610db084828501610c8b565b91505092915050565b610dc281610ec0565b82525050565b6000610dd382610e92565b610ddd8185610e9d565b9350610ded818560208601610f03565b610df681610f36565b840191505092915050565b610e0a81610eec565b82525050565b610e1981610ef6565b82525050565b6000602082019050610e346000830184610db9565b92915050565b60006020820190508181036000830152610e548184610dc8565b905092915050565b6000602082019050610e716000830184610e01565b92915050565b6000602082019050610e8c6000830184610e10565b92915050565b600081519050919050565b600082825260208201905092915050565b6000610eb982610ecc565b9050919050565b60008115159050919050565b600073ffffffffffffffffffffffffffffffffffffffff82169050919050565b6000819050919050565b600060ff82169050919050565b60005b83811015610f21578082015181840152602081019050610f06565b83811115610f30576000848401525b50505050565b6000601f19601f8301169050919050565b610f5081610eae565b8114610f5b57600080fd5b50565b610f6781610eec565b8114610f7257600080fd5b5056fea2646970667358221220210f425530f1cd6155f5583dcafa1dda3c7c46801329b0d06f9cb7636394511864736f6c63430006080033",
  "immutableReferences": {},
  "source": "// SPDX-License-Identifier: MIT\npragma solidity >0.4.4 <0.8.0;\npragma experimental ABIEncoderV2;\nimport \"./ERC20.sol\";\n\n\ncontract Loteria{\n\n    // Instancia del contrato Token\n    ERC20Basic private token;\n\n    // Direcciones\n    address public owner;\n    address public contrato;\n    address public direccion_ganador;\n\n    // Numeros de Tokens a crear\n    uint public tokens_creados = 10000;\n\n    // Evento de compra de Tokens\n    event ComprandoTokens (uint, address);\n\n    constructor () public {\n        token = new ERC20Basic(tokens_creados);\n        owner = msg.sender;\n        contrato = address(this);\n    }\n\n// ------------------------------ TOKEN ----------------------------------------\n\n// Establecer el precio de los Tokens en ethers\nfunction PrecioTokens(uint _numTokens) internal pure returns(uint){\n    return _numTokens*(1 ether);\n}\n\n// Generar mas Tokens por la loteria\nfunction GeneraTokens(uint _numTokens) public Unicamente(msg.sender){\n    token.increaseTotalSupply(_numTokens);\n}\n\n// Modificador para hacer funciones solamente accesibles por el owner del contrato\nmodifier Unicamente(address _direccion){\n    require (_direccion == owner, \"No tienes permisos para ejecutar esta funcion.\");\n    _;\n}\n\n// Comprar Tokens para comprar boletos para la loteria\nfunction CompraTokens(address _propietario, uint _numTokens) public payable{\n    // Calcular el coste de los tokens\n    uint coste = PrecioTokens(_numTokens);\n    // Se requiere que el valos de ethers pagados sea equivalente al coste\n    require (msg.value >= coste, \"Compra menos Tokens o paga con mas ethers.\");\n    // Obtener el balance de Tokens del contrato\n    uint Balance = TokensDisponibles();\n    // Filtro para evaluar los Tokens a comprar con los Tokens disponibles\n    require (_numTokens <= Balance, \"Compra un numero de Tokens adecuado.\");\n    // Diferencia a pagar \n    uint returnValue = msg.value - coste;\n    // Transferencia de la diferencia\n    msg.sender.transfer(returnValue);\n    // Transferencia de Tokens al comprador\n    token.transfer(_propietario, _numTokens);\n    // Emitir el evento de compra de Tokens\n    emit ComprandoTokens(_numTokens, _propietario);\n}\n\n// Balance de Tokens en el contrato de loteria\nfunction TokensDisponibles() public view returns(uint) {\n    return token.balanceOf(contrato);\n}\n\n// Obtener el balance de Tokens acumulados en el bote\nfunction Bote() public view returns(uint) {\n    return token.balanceOf(owner);\n}\n\n// Obtener balance de Tokens de una persona\nfunction MisTokens(address _propietario) public view returns(uint) {\n    return token.balanceOf(_propietario);\n}\n\n// ------------------------------ LOTERIA ----------------------------------------\n\n// Precio del boleto en Tokens\nuint public PrecioBoleto = 5;\n// Relacion entre la persona que compra los boletos y el numero de los boletos\nmapping(address => uint []) idPersona_boletos;\n// Relacion necessaria para identidicar al ganador\nmapping(uint => address) ADN_boleto;\n// Numero aleatorio\nuint randNonce = 0;\n// Boletos generados\nuint [] boletos_comprados;\n// Eventos\nevent boleto_comprado(uint, address);           // Evento cuando se compra un boleto\nevent boleto_ganador(uint);            // Evento del ganador\nevent tokens_devueltos(uint, address); // Evento para devolver Tokens\n\n// Funcion para comprar boletos de loteria\nfunction CompraBoleto(uint _boletos) public {\n    // Precio total de los boletos a comprar\n    uint precio_total = _boletos * PrecioBoleto;\n    // Filtrado de los Tokens a pagar\n    require(precio_total >= MisTokens(msg.sender), \"Necesitas comprar mas Tokens.\");\n    // Transferencia de Tokens al owner -> bote/premio\n\n    /* El cliente para la atraccion en Tokens:\n    - Ha sido necesario crear una funcion en ERC20.sol con el nombre de \"transferencia_loteria()\".\n    */\n\n    token.transferencia_loteria(msg.sender, owner, precio_total);\n\n    /*\n    Lo que esto haria es tomar la marca de tiempo now, el msg.sender y un nonce\n    (un numero que solo se utiliza una vez, para que no ejecutemos dos veces la \n    misma funcion de hash con los mismos parametros de entrada) en incremento.\n    Luego se utiliza keccak56 para convertir estas entradas a un hash aleatorio,\n    convertir ese hash a un uint y luego utilizamos %10000 para tomar los ultimos 4 digitos.\n    Dando un valor aleatorio entre 0 - 9999.\n    */\n\n    for (uint i=0; i<_boletos; i++) {\n        uint random = uint(keccak256(abi.encodePacked(now, msg.sender, randNonce))) % 10000;\n        randNonce ++;\n        // Almacenamos los datos de los boletos\n        idPersona_boletos[msg.sender].push(random);\n        // Numero de boleto comprado\n        boletos_comprados.push(random);\n        // Asignacion del ADN del boleto para tener un ganador\n        ADN_boleto[random] = msg.sender;\n        // Emision del evento\n        emit boleto_comprado(random, msg.sender);\n    }\n}\n\nfunction TusBoletos() public view returns(uint [] memory){\n    return idPersona_boletos[msg.sender];\n}\n\n// Funcion para generar un ganador e ingresarle los Tokens\nfunction GenerarGanador() public Unicamente(msg.sender){\n    // Debe haber boletos comprados para generar un ganador\n    require(boletos_comprados.length > 0, \"No hay boletos comprados\");\n    // Declaracion de la longitud del array\n    uint longitud = boletos_comprados.length;\n    // Aleatoriamente elijo un numero entre: 0 - longitud\n    // 1 - Eleccion de una posicion aleatoria del array\n    uint posicion_array = uint(uint(keccak256(abi.encodePacked(now))) % longitud);\n    // 2 - Seleccion del numero aleatorio mediante la posicion del array aleatorio\n    uint eleccion = boletos_comprados[posicion_array];\n    // Emision del evento del ganador\n    emit boleto_ganador(eleccion);\n    // Recuperar la direccion del ganador\n    direccion_ganador = ADN_boleto[eleccion];\n    // Enviarle los Tokens del premio al ganador\n    token.transferencia_loteria(msg.sender, direccion_ganador, Bote());\n}\n\n// Devolucion de los Tokens\nfunction DevolverTokens(uint _numTokens) public payable{\n    // El numero de Tokens a devolver debe ser mayor a 0\n    require(_numTokens > 0 ,\"Necesitas devolver un numero positivo de Tokens.\");\n    // El usuario/cliente debe tener los Tokens que desea devolver\n    require(_numTokens <= MisTokens(msg.sender), \"No tienes los Tokens que deseas devolver.\");\n    // DEVOLUCION:\n    // 1. El cliente devuelve los Tokens\n    // 2. La loteria paga los Tokens devueltos en Ethers\n    token.transferencia_loteria(msg.sender, address(this), _numTokens);\n    msg.sender.transfer(PrecioTokens(_numTokens));\n    // Emision del evento\n    emit tokens_devueltos(_numTokens, msg.sender);\n}\n\n\n\n\n\n\n\n\n\n\n\n}",
  "sourcePath": "D:\\Rober\\Curso Dapps NFT\\Seccion_23_Aplicacion_Distribuida_Dapp_de_una_loteria_con_Tokens_ERC20\\LoteriaReact\\src\\contracts\\Loteria.sol",
  "compiler": {
    "name": "solc",
    "version": "0.6.8+commit.0bbfe453.Emscripten.clang"
  },
  "schemaVersion": "3.4.10",
  "updatedAt": "2022-12-20T22:42:10.987Z",
  "networkType": "ethereum",
  "devdoc": {
    "methods": {}
  },
  "userdoc": {
    "methods": {}
  }
}